{
  "contractName": "Lottery",
  "abi": [
    {
      "constant": true,
      "inputs": [],
      "name": "manager",
      "outputs": [
        {
          "name": "",
          "type": "address"
        }
      ],
      "payable": false,
      "stateMutability": "view",
      "type": "function"
    },
    {
      "constant": true,
      "inputs": [
        {
          "name": "",
          "type": "uint256"
        }
      ],
      "name": "players",
      "outputs": [
        {
          "name": "",
          "type": "address"
        }
      ],
      "payable": false,
      "stateMutability": "view",
      "type": "function"
    },
    {
      "inputs": [],
      "payable": false,
      "stateMutability": "nonpayable",
      "type": "constructor"
    },
    {
      "constant": false,
      "inputs": [],
      "name": "enter",
      "outputs": [],
      "payable": true,
      "stateMutability": "payable",
      "type": "function"
    },
    {
      "constant": false,
      "inputs": [],
      "name": "pickWinner",
      "outputs": [],
      "payable": false,
      "stateMutability": "nonpayable",
      "type": "function"
    },
    {
      "constant": true,
      "inputs": [],
      "name": "getPlayers",
      "outputs": [
        {
          "name": "",
          "type": "address[]"
        }
      ],
      "payable": false,
      "stateMutability": "view",
      "type": "function"
    },
    {
      "constant": true,
      "inputs": [],
      "name": "getLotteryBalance",
      "outputs": [
        {
          "name": "",
          "type": "uint256"
        }
      ],
      "payable": false,
      "stateMutability": "view",
      "type": "function"
    }
  ],
  "bytecode": "0x608060405234801561001057600080fd5b50336000806101000a81548173ffffffffffffffffffffffffffffffffffffffff021916908373ffffffffffffffffffffffffffffffffffffffff160217905550610669806100606000396000f300608060405260043610610078576000357c0100000000000000000000000000000000000000000000000000000000900463ffffffff168063481c6a751461007d5780635d495aea146100d457806360654e47146100eb5780638b5b9ccc14610116578063e97dcb6214610182578063f71d96cb1461018c575b600080fd5b34801561008957600080fd5b506100926101f9565b604051808273ffffffffffffffffffffffffffffffffffffffff1673ffffffffffffffffffffffffffffffffffffffff16815260200191505060405180910390f35b3480156100e057600080fd5b506100e961021e565b005b3480156100f757600080fd5b50610100610376565b6040518082815260200191505060405180910390f35b34801561012257600080fd5b5061012b610395565b6040518080602001828103825283818151815260200191508051906020019060200280838360005b8381101561016e578082015181840152602081019050610153565b505050509050019250505060405180910390f35b61018a610423565b005b34801561019857600080fd5b506101b7600480360381019080803590602001909291905050506104a0565b604051808273ffffffffffffffffffffffffffffffffffffffff1673ffffffffffffffffffffffffffffffffffffffff16815260200191505060405180910390f35b6000809054906101000a900473ffffffffffffffffffffffffffffffffffffffff1681565b60008060009054906101000a900473ffffffffffffffffffffffffffffffffffffffff1673ffffffffffffffffffffffffffffffffffffffff163373ffffffffffffffffffffffffffffffffffffffff1614151561027b57600080fd5b6001805490506102896104de565b81151561029257fe5b0690506001818154811015156102a457fe5b9060005260206000200160009054906101000a900473ffffffffffffffffffffffffffffffffffffffff1673ffffffffffffffffffffffffffffffffffffffff166108fc3073ffffffffffffffffffffffffffffffffffffffff16319081150290604051600060405180830381858888f1935050505015801561032b573d6000803e3d6000fd5b50600060405190808252806020026020018201604052801561035c5781602001602082028038833980820191505090505b5060019080519060200190610372929190610570565b5050565b60003073ffffffffffffffffffffffffffffffffffffffff1631905090565b6060600180548060200260200160405190810160405280929190818152602001828054801561041957602002820191906000526020600020905b8160009054906101000a900473ffffffffffffffffffffffffffffffffffffffff1673ffffffffffffffffffffffffffffffffffffffff16815260200190600101908083116103cf575b5050505050905090565b662386f26fc100003411151561043857600080fd5b60013390806001815401808255809150509060018203906000526020600020016000909192909190916101000a81548173ffffffffffffffffffffffffffffffffffffffff021916908373ffffffffffffffffffffffffffffffffffffffff16021790555050565b6001818154811015156104af57fe5b906000526020600020016000915054906101000a900473ffffffffffffffffffffffffffffffffffffffff1681565b60004442600160405180848152602001838152602001828054801561055857602002820191906000526020600020905b8160009054906101000a900473ffffffffffffffffffffffffffffffffffffffff1673ffffffffffffffffffffffffffffffffffffffff168152602001906001019080831161050e575b50509350505050604051809103902060019004905090565b8280548282559060005260206000209081019282156105e9579160200282015b828111156105e85782518260006101000a81548173ffffffffffffffffffffffffffffffffffffffff021916908373ffffffffffffffffffffffffffffffffffffffff16021790555091602001919060010190610590565b5b5090506105f691906105fa565b5090565b61063a91905b8082111561063657600081816101000a81549073ffffffffffffffffffffffffffffffffffffffff021916905550600101610600565b5090565b905600a165627a7a7230582083b05e7e0fd7fe90af90a57f23f5997db1a0c2d2a21d955a5d4080b4633ce6510029",
  "source": "pragma solidity ^0.4.23;\n\ncontract Lottery {\n    address public manager;\n    address[] public players;\n    \n    constructor() public {\n        manager = msg.sender;\n    }\n    \n    function enter() public payable {\n        require(msg.value > .01 ether);\n        players.push(msg.sender);\n    }\n    \n    function random() private view returns (uint) {\n        return uint(keccak256(block.difficulty, now, players));\n    }\n    \n    function pickWinner() public restricted {\n        uint index = random() % players.length;\n        players[index].transfer(address(this).balance);\n        players = new address[](0);\n    }\n    \n    modifier restricted() {\n        require(msg.sender == manager);\n        _;\n    }\n\n    function getPlayers() public view returns (address[]) {\n        return players;\n    }\n    \n    function getLotteryBalance() public view returns (uint) {\n        return address(this).balance;\n    }\n}",
  "sourcePath": "/Users/yosukeochiai/hands-on/lottery/contracts/Lottery.sol",
  "compiler": {
    "name": "solc",
    "version": "0.4.24+commit.e67f0147.Emscripten.clang"
  },
  "schemaVersion": "2.0.0",
  "updatedAt": "2018-08-05T14:26:23.444Z"
}